﻿BL51 BANKED LINKER/LOCATER V6.22                                                        12/19/2022  14:18:47  PAGE 1


BL51 BANKED LINKER/LOCATER V6.22, INVOKED BY:
D:\KEIL_V5\C51\BIN\BL51.EXE Delay.obj, LCD1602.obj, main.obj, MatrixKey.obj TO Project PRINT (.\Listings\Project.m51) RA
>> MSIZE (256)


MEMORY MODEL: SMALL


INPUT MODULES INCLUDED:
  Delay.obj (DELAY)
  LCD1602.obj (LCD1602)
  main.obj (MAIN)
  MatrixKey.obj (MATRIXKEY)
  D:\KEIL_V5\C51\LIB\C51S.LIB (?C_STARTUP)
  D:\KEIL_V5\C51\LIB\C51S.LIB (?C?CLDOPTR)
  D:\KEIL_V5\C51\LIB\C51S.LIB (?C?IMUL)
  D:\KEIL_V5\C51\LIB\C51S.LIB (?C?UIDIV)


LINK MAP OF MODULE:  Project (DELAY)


            TYPE    BASE      LENGTH    RELOCATION   SEGMENT NAME
            -----------------------------------------------------

            * * * * * * *   D A T A   M E M O R Y   * * * * * * *
            REG     0000H     0008H     ABSOLUTE     "REG BANK 0"
            DATA    0008H     0009H     UNIT         _DATA_GROUP_
            DATA    0011H     0007H     UNIT         ?DT?_LCD_SHOWSIGNEDNUM?LCD1602
            DATA    0018H     0005H     UNIT         ?DT?_LCD_SHOWHEXNUM?LCD1602
            DATA    001DH     0005H     UNIT         ?DT?_LCD_SHOWBINNUM?LCD1602
            DATA    0022H     0001H     UNIT         ?DT?MAIN
            IDATA   0023H     0001H     UNIT         ?STACK

            * * * * * * *   C O D E   M E M O R Y   * * * * * * *
            CODE    0000H     0003H     ABSOLUTE     
            CODE    0003H     0189H     UNIT         ?PR?MATRIXKEY?MATRIXKEY
            CODE    018CH     0094H     UNIT         ?C?LIB_CODE
            CODE    0220H     003AH     UNIT         ?PR?_LCD_SHOWSIGNEDNUM?LCD1602
            CODE    025AH     0039H     UNIT         ?PR?_LCD_SHOWHEXNUM?LCD1602
            CODE    0293H     0038H     UNIT         ?PR?_LCD_SHOWBINNUM?LCD1602
            CODE    02CBH     0033H     UNIT         ?PR?_LCD_POW?LCD1602
            CODE    02FEH     0028H     UNIT         ?PR?MAIN?MAIN
            CODE    0326H     0023H     UNIT         ?PR?_LCD_SHOWSTRING?LCD1602
            CODE    0349H     001EH     UNIT         ?PR?_LCD_WRITEDATA?LCD1602
            CODE    0367H     001DH     UNIT         ?PR?_LCD_SHOWNUM?LCD1602
            CODE    0384H     0016H     UNIT         ?PR?_LCD_SETCURSOR?LCD1602
            CODE    039AH     0015H     UNIT         ?PR?_DELAY?DELAY
            CODE    03AFH     0014H     UNIT         ?PR?LCD_INIT?LCD1602
            CODE    03C3H     000FH     UNIT         ?PR?LCD_DELAY?LCD1602
            CODE    03D2H     000CH     UNIT         ?C_C51STARTUP
            CODE    03DEH     000BH     UNIT         ?CO?MAIN
            CODE    03E9H     000AH     UNIT         ?PR?_LCD_WRITECOMMAND?LCD1602
            CODE    03F3H     000AH     UNIT         ?PR?_LCD_SHOWCHAR?LCD1602



OVERLAY MAP OF MODULE:   Project (DELAY)
BL51 BANKED LINKER/LOCATER V6.22                                                      12/19/2022  14:18:47  PAGE 2




SEGMENT                                  DATA_GROUP 
  +--> CALLED SEGMENT                  START    LENGTH
------------------------------------------------------
?C_C51STARTUP                          -----    -----
  +--> ?PR?MAIN?MAIN

?PR?MAIN?MAIN                          -----    -----
  +--> ?PR?LCD_INIT?LCD1602
  +--> ?CO?MAIN
  +--> ?PR?_LCD_SHOWSTRING?LCD1602
  +--> ?PR?MATRIXKEY?MATRIXKEY
  +--> ?PR?_LCD_SHOWNUM?LCD1602

?PR?LCD_INIT?LCD1602                   -----    -----
  +--> ?PR?_LCD_WRITECOMMAND?LCD1602

?PR?_LCD_WRITECOMMAND?LCD1602          -----    -----
  +--> ?PR?LCD_DELAY?LCD1602

?PR?_LCD_SHOWSTRING?LCD1602            0008H    0003H
  +--> ?PR?_LCD_SETCURSOR?LCD1602
  +--> ?PR?_LCD_WRITEDATA?LCD1602

?PR?_LCD_SETCURSOR?LCD1602             -----    -----
  +--> ?PR?_LCD_WRITECOMMAND?LCD1602

?PR?_LCD_WRITEDATA?LCD1602             -----    -----
  +--> ?PR?LCD_DELAY?LCD1602

?PR?MATRIXKEY?MATRIXKEY                0008H    0001H
  +--> ?PR?_DELAY?DELAY

?PR?_LCD_SHOWNUM?LCD1602               0008H    0005H
  +--> ?PR?_LCD_SETCURSOR?LCD1602
  +--> ?PR?_LCD_POW?LCD1602
  +--> ?PR?_LCD_WRITEDATA?LCD1602

?PR?_LCD_POW?LCD1602                   000DH    0004H



SYMBOL TABLE OF MODULE:  Project (DELAY)

  VALUE           TYPE          NAME
  ----------------------------------

  -------         MODULE        DELAY
  C:0000H         SYMBOL        _ICE_DUMMY_
  C:039AH         PUBLIC        _Delay
  -------         PROC          _DELAY
  D:0006H         SYMBOL        xms
  -------         DO            
  D:0005H         SYMBOL        i
  D:0004H         SYMBOL        j
  -------         ENDDO         
BL51 BANKED LINKER/LOCATER V6.22                                                      12/19/2022  14:18:47  PAGE 3


  C:039AH         LINE#         1
  C:039AH         LINE#         3
  C:03A4H         LINE#         4
  C:03A6H         LINE#         5
  C:03A8H         LINE#         6
  C:03A8H         LINE#         7
  C:03AAH         LINE#         8
  C:03ACH         LINE#         9
  C:03AEH         LINE#         10
  -------         ENDPROC       _DELAY
  -------         ENDMOD        DELAY

  -------         MODULE        LCD1602
  C:0000H         SYMBOL        _ICE_DUMMY_
  D:0080H         PUBLIC        P0
  D:00A0H         PUBLIC        P2
  C:03E9H         PUBLIC        _LCD_WriteCommand
  C:0367H         PUBLIC        _LCD_ShowNum
  C:0293H         PUBLIC        _LCD_ShowBinNum
  C:03C9H         PUBLIC        LCD_Delay
  C:025AH         PUBLIC        _LCD_ShowHexNum
  C:035DH         PUBLIC        _LCD_WriteData
  B:00A0H.7       PUBLIC        LCD_EN
  C:03AFH         PUBLIC        LCD_Init
  C:0326H         PUBLIC        _LCD_ShowString
  C:03F3H         PUBLIC        _LCD_ShowChar
  B:00A0H.6       PUBLIC        LCD_RS
  B:00A0H.5       PUBLIC        LCD_RW
  C:0384H         PUBLIC        _LCD_SetCursor
  C:0220H         PUBLIC        _LCD_ShowSignedNum
  C:02D7H         PUBLIC        _LCD_Pow
  -------         PROC          L?0048
  -------         ENDPROC       L?0048
  -------         PROC          LCD_DELAY
  -------         DO            
  D:0007H         SYMBOL        i
  D:0006H         SYMBOL        j
  -------         ENDDO         
  C:03C9H         LINE#         15
  C:03C9H         LINE#         17
  C:03CBH         LINE#         18
  C:03CDH         LINE#         19
  C:03CDH         LINE#         20
  C:03CFH         LINE#         21
  C:03D1H         LINE#         22
  -------         ENDPROC       LCD_DELAY
  -------         PROC          _LCD_WRITECOMMAND
  D:0007H         SYMBOL        Command
  C:03E9H         LINE#         29
  C:03E9H         LINE#         30
  C:03EBH         LINE#         31
  C:03EBH         LINE#         32
  C:03EBH         LINE#         33
  C:03EBH         LINE#         34
  C:03EEH         LINE#         35
  C:03F0H         LINE#         36
  -------         ENDPROC       _LCD_WRITECOMMAND
BL51 BANKED LINKER/LOCATER V6.22                                                      12/19/2022  14:18:47  PAGE 4


  -------         PROC          L?0047
  -------         ENDPROC       L?0047
  -------         PROC          _LCD_WRITEDATA
  D:0007H         SYMBOL        Data
  C:035DH         LINE#         44
  C:035DH         LINE#         45
  C:035FH         LINE#         46
  C:035FH         LINE#         47
  C:035FH         LINE#         48
  C:035FH         LINE#         49
  C:0362H         LINE#         50
  C:0364H         LINE#         51
  -------         ENDPROC       _LCD_WRITEDATA
  -------         PROC          _LCD_SETCURSOR
  D:0006H         SYMBOL        Line
  D:0005H         SYMBOL        Column
  C:0384H         LINE#         60
  C:0386H         LINE#         61
  C:0389H         LINE#         62
  C:038BH         LINE#         63
  C:0390H         LINE#         64
  C:0399H         LINE#         65
  C:0399H         LINE#         66
  -------         ENDPROC       _LCD_SETCURSOR
  -------         PROC          LCD_INIT
  C:03AFH         LINE#         73
  C:03AFH         LINE#         74
  C:03B4H         LINE#         75
  C:03B9H         LINE#         76
  C:03BEH         LINE#         77
  -------         ENDPROC       LCD_INIT
  -------         PROC          _LCD_SHOWCHAR
  D:0006H         SYMBOL        Line
  D:0005H         SYMBOL        Column
  D:0004H         SYMBOL        Char
  C:03F3H         LINE#         87
  C:03F5H         LINE#         88
  C:03F8H         LINE#         89
  -------         ENDPROC       _LCD_SHOWCHAR
  -------         PROC          _LCD_SHOWSTRING
  D:0007H         SYMBOL        Line
  D:0005H         SYMBOL        Column
  D:0008H         SYMBOL        String
  -------         DO            
  D:0005H         SYMBOL        i
  -------         ENDDO         
  C:0326H         LINE#         99
  C:032CH         LINE#         101
  C:032FH         LINE#         102
  C:0342H         LINE#         103
  C:0345H         LINE#         104
  C:0348H         LINE#         105
  -------         ENDPROC       _LCD_SHOWSTRING
  C:02CDH         SYMBOL        L?0046
  -------         PROC          L?0045
  -------         ENDPROC       L?0045
  C:02CDH         SYMBOL        L?0046
BL51 BANKED LINKER/LOCATER V6.22                                                      12/19/2022  14:18:47  PAGE 5


  -------         PROC          _LCD_POW
  D:000DH         SYMBOL        X
  D:000FH         SYMBOL        Y
  -------         DO            
  D:0003H         SYMBOL        i
  D:0006H         SYMBOL        Result
  -------         ENDDO         
  C:02D7H         LINE#         110
  C:02DFH         LINE#         112
  C:02E3H         LINE#         113
  C:02F3H         LINE#         114
  C:02FAH         LINE#         115
  C:02FDH         LINE#         116
  C:02FDH         LINE#         117
  -------         ENDPROC       _LCD_POW
  -------         PROC          _LCD_SHOWNUM
  D:0007H         SYMBOL        Line
  D:0005H         SYMBOL        Column
  D:000AH         SYMBOL        Number
  D:000CH         SYMBOL        Length
  -------         DO            
  D:0002H         SYMBOL        i
  -------         ENDDO         
  C:0367H         LINE#         127
  C:036BH         LINE#         129
  C:036EH         LINE#         130
  C:0376H         LINE#         131
  C:0380H         LINE#         132
  C:0383H         LINE#         133
  -------         ENDPROC       _LCD_SHOWNUM
  -------         PROC          _LCD_SHOWSIGNEDNUM
  D:0007H         SYMBOL        Line
  D:0005H         SYMBOL        Column
  D:0002H         SYMBOL        Number
  D:0015H         SYMBOL        Length
  -------         DO            
  D:0002H         SYMBOL        i
  D:0016H         SYMBOL        Number1
  -------         ENDDO         
  C:0220H         LINE#         143
  C:0220H         LINE#         146
  C:0223H         LINE#         147
  C:022BH         LINE#         148
  C:0230H         LINE#         149
  C:0234H         LINE#         150
  C:0236H         LINE#         151
  C:023BH         LINE#         152
  C:0244H         LINE#         153
  C:0244H         LINE#         154
  C:024CH         LINE#         155
  C:0256H         LINE#         156
  C:0259H         LINE#         157
  -------         ENDPROC       _LCD_SHOWSIGNEDNUM
  -------         PROC          _LCD_SHOWHEXNUM
  D:0007H         SYMBOL        Line
  D:0005H         SYMBOL        Column
  D:001AH         SYMBOL        Number
BL51 BANKED LINKER/LOCATER V6.22                                                      12/19/2022  14:18:47  PAGE 6


  D:001CH         SYMBOL        Length
  -------         DO            
  D:0002H         SYMBOL        i
  D:0006H         SYMBOL        SingleNumber
  -------         ENDDO         
  C:025AH         LINE#         167
  C:025EH         LINE#         169
  C:0261H         LINE#         170
  C:0269H         LINE#         171
  C:027FH         LINE#         172
  C:0285H         LINE#         173
  C:0287H         LINE#         174
  C:0289H         LINE#         175
  C:028FH         LINE#         176
  C:028FH         LINE#         177
  C:0292H         LINE#         178
  -------         ENDPROC       _LCD_SHOWHEXNUM
  -------         PROC          _LCD_SHOWBINNUM
  D:0007H         SYMBOL        Line
  D:0005H         SYMBOL        Column
  D:001FH         SYMBOL        Number
  D:0021H         SYMBOL        Length
  -------         DO            
  D:0002H         SYMBOL        i
  -------         ENDDO         
  C:0293H         LINE#         188
  C:0297H         LINE#         190
  C:029AH         LINE#         191
  C:02A2H         LINE#         192
  C:02C7H         LINE#         193
  C:02CAH         LINE#         194
  -------         ENDPROC       _LCD_SHOWBINNUM
  -------         ENDMOD        LCD1602

  -------         MODULE        MAIN
  C:0000H         SYMBOL        _ICE_DUMMY_
  C:02FEH         PUBLIC        main
  D:0022H         PUBLIC        key_num
  -------         PROC          MAIN
  C:02FEH         LINE#         9
  C:02FEH         LINE#         10
  C:0301H         LINE#         11
  C:030EH         LINE#         12
  C:030EH         LINE#         13
  C:0313H         LINE#         14
  C:0317H         LINE#         15
  C:0324H         LINE#         16
  C:0324H         LINE#         17
  -------         ENDPROC       MAIN
  -------         ENDMOD        MAIN

  -------         MODULE        MATRIXKEY
  C:0000H         SYMBOL        _ICE_DUMMY_
  D:0090H         PUBLIC        P1
  B:0090H.0       PUBLIC        P1_0
  B:0090H.1       PUBLIC        P1_1
  B:0090H.2       PUBLIC        P1_2
BL51 BANKED LINKER/LOCATER V6.22                                                      12/19/2022  14:18:47  PAGE 7


  B:0090H.3       PUBLIC        P1_3
  B:0090H.4       PUBLIC        P1_4
  B:0090H.5       PUBLIC        P1_5
  B:0090H.6       PUBLIC        P1_6
  B:0090H.7       PUBLIC        P1_7
  C:0003H         PUBLIC        MatrixKey
  -------         PROC          MATRIXKEY
  -------         DO            
  D:0008H         SYMBOL        key_number
  -------         ENDDO         
  C:0003H         LINE#         4
  C:0003H         LINE#         5
  C:0006H         LINE#         7
  C:0009H         LINE#         8
  C:000BH         LINE#         9
  C:000EH         LINE#         10
  C:0014H         LINE#         11
  C:0017H         LINE#         12
  C:001EH         LINE#         13
  C:0021H         LINE#         14
  C:0021H         LINE#         15
  C:0024H         LINE#         16
  C:002BH         LINE#         17
  C:002EH         LINE#         18
  C:0035H         LINE#         19
  C:0038H         LINE#         20
  C:0038H         LINE#         21
  C:003BH         LINE#         22
  C:0042H         LINE#         23
  C:0045H         LINE#         24
  C:004CH         LINE#         25
  C:004FH         LINE#         26
  C:004FH         LINE#         27
  C:0052H         LINE#         28
  C:0059H         LINE#         29
  C:005CH         LINE#         30
  C:0063H         LINE#         31
  C:0066H         LINE#         32
  C:0066H         LINE#         34
  C:0069H         LINE#         35
  C:006BH         LINE#         36
  C:006EH         LINE#         37
  C:0075H         LINE#         38
  C:0078H         LINE#         39
  C:007FH         LINE#         40
  C:0082H         LINE#         41
  C:0082H         LINE#         42
  C:0085H         LINE#         43
  C:008CH         LINE#         44
  C:008FH         LINE#         45
  C:0096H         LINE#         46
  C:0099H         LINE#         47
  C:0099H         LINE#         48
  C:009CH         LINE#         49
  C:00A3H         LINE#         50
  C:00A6H         LINE#         51
  C:00ADH         LINE#         52
BL51 BANKED LINKER/LOCATER V6.22                                                      12/19/2022  14:18:47  PAGE 8


  C:00B0H         LINE#         53
  C:00B0H         LINE#         54
  C:00B3H         LINE#         55
  C:00BAH         LINE#         56
  C:00BDH         LINE#         57
  C:00C4H         LINE#         58
  C:00C7H         LINE#         59
  C:00C7H         LINE#         61
  C:00CAH         LINE#         62
  C:00CCH         LINE#         63
  C:00CFH         LINE#         64
  C:00D6H         LINE#         65
  C:00D9H         LINE#         66
  C:00E0H         LINE#         67
  C:00E3H         LINE#         68
  C:00E3H         LINE#         69
  C:00E6H         LINE#         70
  C:00EDH         LINE#         71
  C:00F0H         LINE#         72
  C:00F7H         LINE#         73
  C:00FAH         LINE#         74
  C:00FAH         LINE#         75
  C:00FDH         LINE#         76
  C:0104H         LINE#         77
  C:0107H         LINE#         78
  C:010EH         LINE#         79
  C:0111H         LINE#         80
  C:0111H         LINE#         81
  C:0114H         LINE#         82
  C:011BH         LINE#         83
  C:011EH         LINE#         84
  C:0125H         LINE#         85
  C:0128H         LINE#         86
  C:0128H         LINE#         88
  C:012BH         LINE#         89
  C:012DH         LINE#         90
  C:0130H         LINE#         91
  C:0137H         LINE#         92
  C:013AH         LINE#         93
  C:0141H         LINE#         94
  C:0144H         LINE#         95
  C:0144H         LINE#         96
  C:0147H         LINE#         97
  C:014EH         LINE#         98
  C:0151H         LINE#         99
  C:0158H         LINE#         100
  C:015BH         LINE#         101
  C:015BH         LINE#         102
  C:015EH         LINE#         103
  C:0165H         LINE#         104
  C:0168H         LINE#         105
  C:016FH         LINE#         106
  C:0172H         LINE#         107
  C:0172H         LINE#         108
  C:0175H         LINE#         109
  C:017CH         LINE#         110
  C:017FH         LINE#         111
BL51 BANKED LINKER/LOCATER V6.22                                                      12/19/2022  14:18:47  PAGE 9


  C:0186H         LINE#         112
  C:0189H         LINE#         113
  C:0189H         LINE#         115
  C:018BH         LINE#         116
  -------         ENDPROC       MATRIXKEY
  -------         ENDMOD        MATRIXKEY

  -------         MODULE        ?C?CLDOPTR
  C:018CH         PUBLIC        ?C?CLDOPTR
  -------         ENDMOD        ?C?CLDOPTR

  -------         MODULE        ?C?IMUL
  C:01B9H         PUBLIC        ?C?IMUL
  -------         ENDMOD        ?C?IMUL

  -------         MODULE        ?C?UIDIV
  C:01CBH         PUBLIC        ?C?UIDIV
  -------         ENDMOD        ?C?UIDIV

*** WARNING L16: UNCALLED SEGMENT, IGNORED FOR OVERLAY PROCESS
    SEGMENT: ?PR?_LCD_SHOWCHAR?LCD1602

*** WARNING L16: UNCALLED SEGMENT, IGNORED FOR OVERLAY PROCESS
    SEGMENT: ?PR?_LCD_SHOWSIGNEDNUM?LCD1602

*** WARNING L16: UNCALLED SEGMENT, IGNORED FOR OVERLAY PROCESS
    SEGMENT: ?PR?_LCD_SHOWHEXNUM?LCD1602

*** WARNING L16: UNCALLED SEGMENT, IGNORED FOR OVERLAY PROCESS
    SEGMENT: ?PR?_LCD_SHOWBINNUM?LCD1602

Program Size: data=36.0 xdata=0 code=1021
LINK/LOCATE RUN COMPLETE.  4 WARNING(S),  0 ERROR(S)
