:03000000020100FA
:03000B000201E10E
:10010000E4F593F594F591F592F595F596F5B1F53D
:10011000B2F5B375B401F5C9F5CAF5CBF5CCF5E187
:10012000F5E27581D075D000D2C075BA80740090A8
:10013000FE00F0740290FE01F075BA00758E007535
:10014000380078307A08761008DAFB75300075319F
:100150000075390075A80275B800758900758C3C6A
:10016000758AB07F14D28CD2AF1201A91202078017
:10017000F83F065B4F666D7D077F6F777C395E7950
:10018000710040761E7038375C733E783D6750379B
:100190006E0102040810204080C0027A083392C425
:1001A000D2C2C2C2DAF7D00222C083C082C000E449
:1001B000120199900191E538930012019900D2C380
:1001C000C2C3900171E5382430F8E693F4F5E805F0
:1001D00038E53854F86003753800D000D082D083F9
:1001E00022C0E0C0D0DF1B7F14E5392401D4B46005
:1001F000027400F539E539540FF530E53954F0C48F
:10020000F531D0D0D0E032C003C0047B287CF9DCCB
:0A021000FEDBFC0000D004D0032246
:00000001FF
