:03000000020100FA
:1001000075B40175B30075CCFF75CB0075E2007551
:10011000E10075818012025BC2C07F007542FE85DE
:1001200042E8120141BF000302011FBF0D08E54272
:1001300003F54202011FBF0F05E54223F54202010C
:100140001F7F0075F8FFC2FB30FC0C30FD1530FE40
:100150001E30FF2702018712026F30FCFD12026F72
:100160007F012212026F30FDFD12026F7F05221205
:10017000026F30FEFD12026F7F092212026F30FF04
:10018000FD12026F7F0D2275F8FFC2FA30FC0C30B1
:10019000FD1530FE1E30FF270201CB12026F30FC2E
:1001A000FD12026F7F022212026F30FDFD12026FFC
:1001B0007F062212026F30FEFD12026F7F0A2212AA
:1001C000026F30FFFD12026F7F0E22C2F930FC0C6D
:1001D00030FD1530FE1E30FF2702020C12026F3078
:1001E000FCFD12026F7F032212026F30FDFD12022E
:1001F0006F7F072212026F30FEFD12026F7F0B220B
:1002000012026F30FFFD12026F7F0F22C2F830FC26
:100210000A30FD1330FE1C30FF252212026F30FC25
:10022000FD12026F7F042212026F30FDFD12026F79
:100230007F082212026F30FEFD12026F7F0C221225
:10024000026F30FFFD12026F7F1022C0027A083366
:1002500092C4D2C2C2C2DAF7D00222C0E0E41202D3
:0A0260004BE412024BC2C300D2C3EC
:10026A00C2C3D0E02200C030C031C032753003753D
:10027A003170753259D532FDD531FAD530F7D032D1
:05028A00D031D030224C
:00000001FF
