BL51 BANKED LINKER/LOCATER V6.22.4.0                                                    11/27/2023  20:33:12  PAGE 1


BL51 BANKED LINKER/LOCATER V6.22.4.0, INVOKED BY:
D:\KEIL_V5\C51\BIN\BL51.EXE .\Objects\demo_char_zh_cn.obj TO .\Objects\Project PRINT (.\Listings\Project.m51) RAMSIZE (2
>> 56)


INPUT MODULES INCLUDED:
  .\Objects\demo_char_zh_cn.obj (DEMO_CHAR_ZH_CN)


LINK MAP OF MODULE:  .\Objects\Project (DEMO_CHAR_ZH_CN)


            TYPE    BASE      LENGTH    RELOCATION   SEGMENT NAME
            -----------------------------------------------------

            * * * * * * *   D A T A   M E M O R Y   * * * * * * *
            REG     0000H     0008H     ABSOLUTE     "REG BANK 0"

            * * * * * * *   C O D E   M E M O R Y   * * * * * * *
            CODE    0000H     024BH     ABSOLUTE     



SYMBOL TABLE OF MODULE:  .\Objects\Project (DEMO_CHAR_ZH_CN)

  VALUE           TYPE          NAME
  ----------------------------------

  -------         MODULE        DEMO_CHAR_ZH_CN
  D:008EH         SYMBOL        AUXR
  B:00C0H.0       SYMBOL        CONTROL1
  D:0050H         SYMBOL        DALED8
  C:0186H         SYMBOL        DALOOP
  D:0020H         SYMBOL        DIANLED8
  C:019EH         SYMBOL        DIANLOOP
  D:007FH         SYMBOL        DISPLAY_INDEX1
  N:0010H         SYMBOL        DIS_BLACK
  D:0083H         SYMBOL        DPH
  D:0082H         SYMBOL        DPL
  C:0238H         SYMBOL        F_DELAY_2MS
  C:0209H         SYMBOL        F_DISPLAYSCAN1
  C:0050H         SYMBOL        F_MAIN
  C:01F9H         SYMBOL        F_SEND_595
  D:0038H         SYMBOL        GUOLED8
  C:0162H         SYMBOL        GUOLOOP
  D:0068H         SYMBOL        HAILED8
  D:0040H         SYMBOL        KUANGLED8
  C:016EH         SYMBOL        KUANGLOOP
  C:01AAH         SYMBOL        LILOOP
  C:0152H         SYMBOL        L_MAIN_LOOP
  C:0233H         SYMBOL        L_QUITDISPLAYSCAN1
  C:01FDH         SYMBOL        L_SEND_595_LOOP
  C:0240H         SYMBOL        NEXT
  D:0094H         SYMBOL        P0M0
  D:0093H         SYMBOL        P0M1
  D:0092H         SYMBOL        P1M0
  D:0091H         SYMBOL        P1M1
  D:0096H         SYMBOL        P2M0
BL51 BANKED LINKER/LOCATER V6.22.4.0                                                  11/27/2023  20:33:12  PAGE 2


  D:0095H         SYMBOL        P2M1
  D:00B2H         SYMBOL        P3M0
  D:00B1H         SYMBOL        P3M1
  D:00C0H         SYMBOL        P4
  D:00B4H         SYMBOL        P4M0
  D:00B3H         SYMBOL        P4M1
  D:00C8H         SYMBOL        P5
  D:00CAH         SYMBOL        P5M0
  D:00C9H         SYMBOL        P5M1
  D:00E8H         SYMBOL        P6
  D:00CCH         SYMBOL        P6M0
  D:00CBH         SYMBOL        P6M1
  D:00F8H         SYMBOL        P7
  D:00E2H         SYMBOL        P7M0
  D:00E1H         SYMBOL        P7M1
  D:00D0H         SYMBOL        PSW
  B:00C0H.3       SYMBOL        P_HC595_RCLK
  B:00C0H.4       SYMBOL        P_HC595_SER
  B:00C0H.2       SYMBOL        P_HC595_SRCLK
  D:0028H         SYMBOL        QILED8
  B:00E8H.0       SYMBOL        SEGA
  B:00E8H.1       SYMBOL        SEGB
  B:00E8H.2       SYMBOL        SEGC
  B:00E8H.3       SYMBOL        SEGD
  B:00E8H.7       SYMBOL        SEGDOP
  B:00E8H.4       SYMBOL        SEGE
  B:00E8H.5       SYMBOL        SEGF
  B:00E8H.6       SYMBOL        SEGG
  D:0081H         SYMBOL        SP
  N:00D0H         SYMBOL        STACK_POINTER
  C:01F1H         SYMBOL        T_COM
  C:01D1H         SYMBOL        T_DISPLAY
  D:0058H         SYMBOL        XUELED8
  C:0192H         SYMBOL        XUELOOP
  C:01B6H         SYMBOL        XUELOOP1
  D:0060H         SYMBOL        XULED8
  D:0048H         SYMBOL        YELED8
  C:017AH         SYMBOL        YELOOP
  D:0070H         SYMBOL        YUANLED8
  C:01C2H         SYMBOL        YUANLOOP
  D:0030H         SYMBOL        ZHONGLED8
  C:0156H         SYMBOL        ZHONGLOOP
  C:0000H         LINE#         56
  C:0050H         LINE#         58
  C:0051H         LINE#         59
  C:0053H         LINE#         60
  C:0055H         LINE#         61
  C:0057H         LINE#         62
  C:0059H         LINE#         63
  C:005BH         LINE#         64
  C:005DH         LINE#         65
  C:005FH         LINE#         66
  C:0061H         LINE#         67
  C:0063H         LINE#         68
  C:0066H         LINE#         69
  C:0068H         LINE#         70
  C:006AH         LINE#         71
BL51 BANKED LINKER/LOCATER V6.22.4.0                                                  11/27/2023  20:33:12  PAGE 3


  C:006CH         LINE#         72
  C:006EH         LINE#         73
  C:0070H         LINE#         74
  C:0072H         LINE#         75
  C:0075H         LINE#         76
  C:0078H         LINE#         77
  C:007AH         LINE#         79
  C:007DH         LINE#         80
  C:0080H         LINE#         81
  C:0083H         LINE#         82
  C:0086H         LINE#         83
  C:0089H         LINE#         84
  C:008CH         LINE#         85
  C:008FH         LINE#         86
  C:0092H         LINE#         88
  C:0095H         LINE#         89
  C:0098H         LINE#         90
  C:009BH         LINE#         91
  C:009EH         LINE#         92
  C:00A1H         LINE#         93
  C:00A4H         LINE#         94
  C:00A7H         LINE#         95
  C:00AAH         LINE#         97
  C:00ADH         LINE#         98
  C:00B0H         LINE#         99
  C:00B3H         LINE#         100
  C:00B6H         LINE#         101
  C:00B9H         LINE#         102
  C:00BCH         LINE#         103
  C:00BFH         LINE#         104
  C:00C2H         LINE#         106
  C:00C5H         LINE#         107
  C:00C8H         LINE#         108
  C:00CBH         LINE#         109
  C:00CEH         LINE#         110
  C:00D1H         LINE#         111
  C:00D4H         LINE#         112
  C:00D7H         LINE#         113
  C:00DAH         LINE#         115
  C:00DDH         LINE#         116
  C:00E0H         LINE#         117
  C:00E3H         LINE#         118
  C:00E6H         LINE#         119
  C:00E9H         LINE#         120
  C:00ECH         LINE#         121
  C:00EFH         LINE#         122
  C:00F2H         LINE#         124
  C:00F5H         LINE#         125
  C:00F8H         LINE#         126
  C:00FBH         LINE#         127
  C:00FEH         LINE#         128
  C:0101H         LINE#         129
  C:0104H         LINE#         130
  C:0107H         LINE#         131
  C:010AH         LINE#         133
  C:010DH         LINE#         134
  C:0110H         LINE#         135
BL51 BANKED LINKER/LOCATER V6.22.4.0                                                  11/27/2023  20:33:12  PAGE 4


  C:0113H         LINE#         136
  C:0116H         LINE#         137
  C:0119H         LINE#         138
  C:011CH         LINE#         139
  C:011FH         LINE#         140
  C:0122H         LINE#         142
  C:0125H         LINE#         143
  C:0128H         LINE#         144
  C:012BH         LINE#         145
  C:012EH         LINE#         146
  C:0131H         LINE#         147
  C:0134H         LINE#         148
  C:0137H         LINE#         149
  C:013AH         LINE#         151
  C:013DH         LINE#         152
  C:0140H         LINE#         153
  C:0143H         LINE#         154
  C:0146H         LINE#         155
  C:0149H         LINE#         156
  C:014CH         LINE#         157
  C:014FH         LINE#         158
  C:0152H         LINE#         162
  C:0154H         LINE#         163
  C:0156H         LINE#         164
  C:0159H         LINE#         165
  C:015CH         LINE#         166
  C:015EH         LINE#         168
  C:0160H         LINE#         169
  C:0162H         LINE#         170
  C:0165H         LINE#         171
  C:0168H         LINE#         172
  C:016AH         LINE#         174
  C:016CH         LINE#         175
  C:016EH         LINE#         176
  C:0171H         LINE#         177
  C:0174H         LINE#         178
  C:0176H         LINE#         180
  C:0178H         LINE#         181
  C:017AH         LINE#         182
  C:017DH         LINE#         183
  C:0180H         LINE#         184
  C:0182H         LINE#         186
  C:0184H         LINE#         187
  C:0186H         LINE#         188
  C:0189H         LINE#         189
  C:018CH         LINE#         190
  C:018EH         LINE#         192
  C:0190H         LINE#         193
  C:0192H         LINE#         194
  C:0195H         LINE#         195
  C:0198H         LINE#         196
  C:019AH         LINE#         198
  C:019CH         LINE#         199
  C:019EH         LINE#         200
  C:01A1H         LINE#         201
  C:01A4H         LINE#         202
  C:01A6H         LINE#         204
BL51 BANKED LINKER/LOCATER V6.22.4.0                                                  11/27/2023  20:33:12  PAGE 5


  C:01A8H         LINE#         205
  C:01AAH         LINE#         206
  C:01ADH         LINE#         207
  C:01B0H         LINE#         208
  C:01B2H         LINE#         210
  C:01B4H         LINE#         211
  C:01B6H         LINE#         212
  C:01B9H         LINE#         213
  C:01BCH         LINE#         214
  C:01BEH         LINE#         216
  C:01C0H         LINE#         217
  C:01C2H         LINE#         218
  C:01C5H         LINE#         219
  C:01C8H         LINE#         220
  C:01CAH         LINE#         222
  C:01CCH         LINE#         223
  C:01CEH         LINE#         225
  C:01F9H         LINE#         238
  C:01FBH         LINE#         239
  C:01FDH         LINE#         241
  C:01FEH         LINE#         242
  C:0200H         LINE#         243
  C:0202H         LINE#         244
  C:0204H         LINE#         245
  C:0206H         LINE#         246
  C:0208H         LINE#         247
  C:0209H         LINE#         251
  C:020BH         LINE#         252
  C:020DH         LINE#         254
  C:0210H         LINE#         255
  C:0212H         LINE#         256
  C:0213H         LINE#         257
  C:0214H         LINE#         258
  C:0217H         LINE#         259
  C:0218H         LINE#         260
  C:021BH         LINE#         261
  C:021DH         LINE#         262
  C:021FH         LINE#         264
  C:0220H         LINE#         265
  C:0222H         LINE#         266
  C:0223H         LINE#         267
  C:0225H         LINE#         268
  C:0227H         LINE#         269
  C:0229H         LINE#         270
  C:022BH         LINE#         271
  C:022EH         LINE#         272
  C:022FH         LINE#         273
  C:0230H         LINE#         274
  C:0232H         LINE#         275
  C:0233H         LINE#         277
  C:0235H         LINE#         278
  C:0237H         LINE#         279
  C:0238H         LINE#         282
  C:023AH         LINE#         283
  C:023CH         LINE#         284
  C:023EH         LINE#         285
  C:0240H         LINE#         286
BL51 BANKED LINKER/LOCATER V6.22.4.0                                                  11/27/2023  20:33:12  PAGE 6


  C:0242H         LINE#         287
  C:0244H         LINE#         288
  C:0245H         LINE#         289
  C:0246H         LINE#         290
  C:0248H         LINE#         291
  C:024AH         LINE#         292
  -------         ENDMOD        DEMO_CHAR_ZH_CN

Program Size: data=8.0 xdata=0 code=587
LINK/LOCATE RUN COMPLETE.  0 WARNING(S),  0 ERROR(S)
