BL51 BANKED LINKER/LOCATER V6.22.4.0                                                    08/18/2023  07:40:17  PAGE 1


BL51 BANKED LINKER/LOCATER V6.22.4.0, INVOKED BY:
D:\KEIL_V5\C51\BIN\BL51.EXE .\Objects\STARTUP.obj, .\Objects\bin2bcd.obj TO .\Objects\Project PRINT (.\Listings\Project.
>> m51) RAMSIZE (256)


INPUT MODULES INCLUDED:
  .\Objects\STARTUP.obj (?C_STARTUP)
  .\Objects\bin2bcd.obj (BIN2BCD)


LINK MAP OF MODULE:  .\Objects\Project (?C_STARTUP)


            TYPE    BASE      LENGTH    RELOCATION   SEGMENT NAME
            -----------------------------------------------------

            * * * * * * *   D A T A   M E M O R Y   * * * * * * *
            REG     0000H     0008H     ABSOLUTE     "REG BANK 0"
            IDATA   0008H     0001H     UNIT         ?STACK

            * * * * * * *   C O D E   M E M O R Y   * * * * * * *
            CODE    0000H     0003H     ABSOLUTE     
* OVERLAP * CODE    0000H     00AAH     ABSOLUTE     
            CODE    00AAH     000CH     UNIT         ?C_C51STARTUP



UNRESOLVED EXTERNAL SYMBOLS:
   ?C_START



SYMBOL TABLE OF MODULE:  .\Objects\Project (?C_STARTUP)

  VALUE           TYPE          NAME
  ----------------------------------

  -------         MODULE        ?C_STARTUP
  C:00AAH         SEGMENT       ?C_C51STARTUP
  I:0008H         SEGMENT       ?STACK
  C:0000H         PUBLIC        ?C_STARTUP
  D:00E0H         SYMBOL        ACC
  D:00F0H         SYMBOL        B
  D:0083H         SYMBOL        DPH
  D:0082H         SYMBOL        DPL
  N:0000H         SYMBOL        IBPSTACK
  N:0100H         SYMBOL        IBPSTACKTOP
  N:0080H         SYMBOL        IDATALEN
  C:00ADH         SYMBOL        IDATALOOP
  N:0000H         SYMBOL        PBPSTACK
  N:0100H         SYMBOL        PBPSTACKTOP
  N:0000H         SYMBOL        PDATALEN
  N:0000H         SYMBOL        PDATASTART
  N:0000H         SYMBOL        PPAGE
  N:0000H         SYMBOL        PPAGEENABLE
  D:00A0H         SYMBOL        PPAGE_SFR
  D:0081H         SYMBOL        SP
  C:00AAH         SYMBOL        STARTUP1
BL51 BANKED LINKER/LOCATER V6.22.4.0                                                  08/18/2023  07:40:17  PAGE 2


  N:0000H         SYMBOL        XBPSTACK
  N:0000H         SYMBOL        XBPSTACKTOP
  N:0000H         SYMBOL        XDATALEN
  N:0000H         SYMBOL        XDATASTART
  C:0000H         LINE#         126
  C:00AAH         LINE#         133
  C:00ACH         LINE#         134
  C:00ADH         LINE#         135
  C:00AEH         LINE#         136
  C:00B0H         LINE#         185
  C:00B3H         LINE#         196
  -------         ENDMOD        ?C_STARTUP

  -------         MODULE        BIN2BCD
  C:0093H         SYMBOL        DELAY
  C:0091H         SYMBOL        DELAY_10MS
  C:005AH         SYMBOL        DISPLAY
  D:0083H         SYMBOL        DPH
  D:0082H         SYMBOL        DPL
  C:003DH         SYMBOL        HEXTOBCD
  C:0045H         SYMBOL        LOOP
  C:0030H         SYMBOL        MAIN
  D:0080H         SYMBOL        P0
  D:00A0H         SYMBOL        P2
  C:009AH         SYMBOL        TABLE
  C:0000H         LINE#         8
  C:0030H         LINE#         12
  C:0033H         LINE#         14
  C:0035H         LINE#         15
  C:0037H         LINE#         16
  C:0039H         LINE#         17
  C:003CH         LINE#         18
  C:003DH         LINE#         27
  C:003FH         LINE#         28
  C:0041H         LINE#         29
  C:0043H         LINE#         30
  C:0045H         LINE#         34
  C:0046H         LINE#         35
  C:0047H         LINE#         36
  C:0048H         LINE#         37
  C:0049H         LINE#         38
  C:004AH         LINE#         39
  C:004BH         LINE#         40
  C:004CH         LINE#         42
  C:004DH         LINE#         45
  C:004EH         LINE#         49
  C:004FH         LINE#         50
  C:0050H         LINE#         52
  C:0051H         LINE#         53
  C:0052H         LINE#         54
  C:0053H         LINE#         55
  C:0054H         LINE#         57
  C:0055H         LINE#         58
  C:0056H         LINE#         60
  C:0057H         LINE#         62
  C:0059H         LINE#         63
  C:005AH         LINE#         66
BL51 BANKED LINKER/LOCATER V6.22.4.0                                                  08/18/2023  07:40:17  PAGE 3


  C:005DH         LINE#         70
  C:005FH         LINE#         71
  C:0061H         LINE#         72
  C:0062H         LINE#         73
  C:0063H         LINE#         74
  C:0065H         LINE#         75
  C:0066H         LINE#         76
  C:0068H         LINE#         77
  C:006AH         LINE#         79
  C:006CH         LINE#         80
  C:006EH         LINE#         81
  C:006FH         LINE#         82
  C:0071H         LINE#         83
  C:0072H         LINE#         84
  C:0074H         LINE#         85
  C:0076H         LINE#         87
  C:0078H         LINE#         88
  C:007AH         LINE#         89
  C:007BH         LINE#         90
  C:007CH         LINE#         91
  C:007EH         LINE#         92
  C:007FH         LINE#         93
  C:0081H         LINE#         94
  C:0083H         LINE#         96
  C:0085H         LINE#         97
  C:0087H         LINE#         98
  C:0088H         LINE#         99
  C:008AH         LINE#         100
  C:008BH         LINE#         101
  C:008DH         LINE#         102
  C:008FH         LINE#         104
  C:0091H         LINE#         108
  C:0093H         LINE#         110
  C:0095H         LINE#         111
  C:0097H         LINE#         112
  C:0099H         LINE#         113
  -------         ENDMOD        BIN2BCD

*** WARNING L5: CODE SPACE MEMORY OVERLAP
    FROM:    0000H
    TO:      0002H

*** WARNING L1: UNRESOLVED EXTERNAL SYMBOL
    SYMBOL:  ?C_START
    MODULE:  .\Objects\STARTUP.obj (?C_STARTUP)

*** WARNING L2: REFERENCE MADE TO UNRESOLVED EXTERNAL
    SYMBOL:  ?C_START
    MODULE:  .\Objects\STARTUP.obj (?C_STARTUP)
    ADDRESS: 00B4H

Program Size: data=9.0 xdata=0 code=185
LINK/LOCATE RUN COMPLETE.  3 WARNING(S),  0 ERROR(S)
