BL51 BANKED LINKER/LOCATER V6.22.4.0                                                    08/19/2023  21:39:44  PAGE 1


BL51 BANKED LINKER/LOCATER V6.22.4.0, INVOKED BY:
D:\KEIL_V5\C51\BIN\BL51.EXE .\Objects\STARTUP.obj, .\Objects\digital_tube_dynamic_display2.obj TO .\Objects\Project PRIN
>> T (.\Listings\Project.m51) RAMSIZE (256)


INPUT MODULES INCLUDED:
  .\Objects\STARTUP.obj (?C_STARTUP)
  .\Objects\digital_tube_dynamic_display2.obj (DIGITAL_TUBE_DYNAMIC_DISPLAY2)


LINK MAP OF MODULE:  .\Objects\Project (?C_STARTUP)


            TYPE    BASE      LENGTH    RELOCATION   SEGMENT NAME
            -----------------------------------------------------

            * * * * * * *   D A T A   M E M O R Y   * * * * * * *
            REG     0000H     0008H     ABSOLUTE     "REG BANK 0"
            IDATA   0008H     0001H     UNIT         ?STACK

            * * * * * * *   C O D E   M E M O R Y   * * * * * * *
            CODE    0000H     0003H     ABSOLUTE     
* OVERLAP * CODE    0000H     0037H     ABSOLUTE     
            CODE    0037H     000CH     UNIT         ?C_C51STARTUP



UNRESOLVED EXTERNAL SYMBOLS:
   ?C_START



SYMBOL TABLE OF MODULE:  .\Objects\Project (?C_STARTUP)

  VALUE           TYPE          NAME
  ----------------------------------

  -------         MODULE        ?C_STARTUP
  C:0037H         SEGMENT       ?C_C51STARTUP
  I:0008H         SEGMENT       ?STACK
  C:0000H         PUBLIC        ?C_STARTUP
  D:00E0H         SYMBOL        ACC
  D:00F0H         SYMBOL        B
  D:0083H         SYMBOL        DPH
  D:0082H         SYMBOL        DPL
  N:0000H         SYMBOL        IBPSTACK
  N:0100H         SYMBOL        IBPSTACKTOP
  N:0080H         SYMBOL        IDATALEN
  C:003AH         SYMBOL        IDATALOOP
  N:0000H         SYMBOL        PBPSTACK
  N:0100H         SYMBOL        PBPSTACKTOP
  N:0000H         SYMBOL        PDATALEN
  N:0000H         SYMBOL        PDATASTART
  N:0000H         SYMBOL        PPAGE
  N:0000H         SYMBOL        PPAGEENABLE
  D:00A0H         SYMBOL        PPAGE_SFR
  D:0081H         SYMBOL        SP
  C:0037H         SYMBOL        STARTUP1
BL51 BANKED LINKER/LOCATER V6.22.4.0                                                  08/19/2023  21:39:44  PAGE 2


  N:0000H         SYMBOL        XBPSTACK
  N:0000H         SYMBOL        XBPSTACKTOP
  N:0000H         SYMBOL        XDATALEN
  N:0000H         SYMBOL        XDATASTART
  C:0000H         LINE#         126
  C:0037H         LINE#         133
  C:0039H         LINE#         134
  C:003AH         LINE#         135
  C:003BH         LINE#         136
  C:003DH         LINE#         185
  C:0040H         LINE#         196
  -------         ENDMOD        ?C_STARTUP

  -------         MODULE        DIGITAL_TUBE_DYNAMIC_DISPLAY2
  C:0022H         SYMBOL        DELAY
  C:0026H         SYMBOL        DELAY1
  C:0024H         SYMBOL        DELAY2
  C:000BH         SYMBOL        DIR
  C:0008H         SYMBOL        DIR1
  C:000FH         SYMBOL        NEXT
  D:0080H         SYMBOL        P0
  D:00A0H         SYMBOL        P2
  D:00B0H         SYMBOL        P3
  C:002DH         SYMBOL        TABLE1
  C:0032H         SYMBOL        TABLE2
  C:0000H         SYMBOL        TEST
  C:0000H         LINE#         16
  C:0003H         LINE#         17
  C:0006H         LINE#         18
  C:0008H         LINE#         21
  C:000BH         LINE#         24
  C:000DH         LINE#         25
  C:000FH         LINE#         28
  C:0010H         LINE#         29
  C:0011H         LINE#         30
  C:0013H         LINE#         31
  C:0014H         LINE#         32
  C:0016H         LINE#         33
  C:0019H         LINE#         36
  C:001AH         LINE#         37
  C:001CH         LINE#         38
  C:001DH         LINE#         39
  C:0020H         LINE#         40
  C:0022H         LINE#         43
  C:0024H         LINE#         46
  C:0026H         LINE#         48
  C:0027H         LINE#         49
  C:0028H         LINE#         50
  C:002AH         LINE#         51
  C:002CH         LINE#         52
  -------         ENDMOD        DIGITAL_TUBE_DYNAMIC_DISPLAY2

*** WARNING L5: CODE SPACE MEMORY OVERLAP
    FROM:    0000H
    TO:      0002H

*** WARNING L1: UNRESOLVED EXTERNAL SYMBOL
BL51 BANKED LINKER/LOCATER V6.22.4.0                                                  08/19/2023  21:39:44  PAGE 3


    SYMBOL:  ?C_START
    MODULE:  .\Objects\STARTUP.obj (?C_STARTUP)

*** WARNING L2: REFERENCE MADE TO UNRESOLVED EXTERNAL
    SYMBOL:  ?C_START
    MODULE:  .\Objects\STARTUP.obj (?C_STARTUP)
    ADDRESS: 0041H

Program Size: data=9.0 xdata=0 code=70
LINK/LOCATE RUN COMPLETE.  3 WARNING(S),  0 ERROR(S)
