BL51 BANKED LINKER/LOCATER V6.22                                                        12/17/2022  23:49:16  PAGE 1


BL51 BANKED LINKER/LOCATER V6.22, INVOKED BY:
D:\KEIL_V5\C51\BIN\BL51.EXE .\Objects\main.obj, .\Objects\Delay.obj, .\Objects\nixieTube.obj TO .\Objects\Project PRINT 
>> (.\Listings\Project.m51) RAMSIZE (256)


MEMORY MODEL: SMALL


INPUT MODULES INCLUDED:
  .\Objects\main.obj (MAIN)
  .\Objects\Delay.obj (DELAY)
  .\Objects\nixieTube.obj (NIXIETUBE)
  D:\KEIL_V5\C51\LIB\C51S.LIB (?C_STARTUP)
  D:\KEIL_V5\C51\LIB\C51S.LIB (?C_INIT)


LINK MAP OF MODULE:  .\Objects\Project (MAIN)


            TYPE    BASE      LENGTH    RELOCATION   SEGMENT NAME
            -----------------------------------------------------

            * * * * * * *   D A T A   M E M O R Y   * * * * * * *
            REG     0000H     0008H     ABSOLUTE     "REG BANK 0"
            DATA    0008H     000AH     UNIT         ?DT?NIXIETUBE
            IDATA   0012H     0001H     UNIT         ?STACK

            * * * * * * *   C O D E   M E M O R Y   * * * * * * *
            CODE    0000H     0003H     ABSOLUTE     
            CODE    0003H     008CH     UNIT         ?C_C51STARTUP
            CODE    008FH     006DH     UNIT         ?PR?_NIXIETUBE?NIXIETUBE
            CODE    00FCH     002CH     UNIT         ?PR?MAIN?MAIN
            CODE    0128H     0015H     UNIT         ?PR?_DELAY?DELAY
            CODE    013DH     000DH     UNIT         ?C_INITSEG



OVERLAY MAP OF MODULE:   .\Objects\Project (MAIN)


SEGMENT
  +--> CALLED SEGMENT
---------------------
?C_C51STARTUP
  +--> ?PR?MAIN?MAIN
  +--> ?C_INITSEG

?PR?MAIN?MAIN
  +--> ?PR?_NIXIETUBE?NIXIETUBE

?PR?_NIXIETUBE?NIXIETUBE
  +--> ?PR?_DELAY?DELAY



SYMBOL TABLE OF MODULE:  .\Objects\Project (MAIN)

  VALUE           TYPE          NAME
BL51 BANKED LINKER/LOCATER V6.22                                                      12/17/2022  23:49:16  PAGE 2


  ----------------------------------

  -------         MODULE        MAIN
  C:0000H         SYMBOL        _ICE_DUMMY_
  C:00FCH         PUBLIC        main
  -------         PROC          MAIN
  C:00FCH         LINE#         5
  C:00FCH         LINE#         6
  C:00FCH         LINE#         7
  C:0103H         LINE#         8
  C:010AH         LINE#         9
  C:0111H         LINE#         10
  C:0118H         LINE#         11
  C:011FH         LINE#         12
  C:0126H         LINE#         13
  -------         ENDPROC       MAIN
  -------         ENDMOD        MAIN

  -------         MODULE        DELAY
  C:0000H         SYMBOL        _ICE_DUMMY_
  C:0128H         PUBLIC        _Delay
  -------         PROC          _DELAY
  D:0006H         SYMBOL        xms
  -------         DO            
  D:0005H         SYMBOL        i
  D:0004H         SYMBOL        j
  -------         ENDDO         
  C:0128H         LINE#         1
  C:0128H         LINE#         3
  C:0132H         LINE#         4
  C:0134H         LINE#         5
  C:0136H         LINE#         6
  C:0136H         LINE#         7
  C:0138H         LINE#         8
  C:013AH         LINE#         9
  C:013CH         LINE#         10
  -------         ENDPROC       _DELAY
  -------         ENDMOD        DELAY

  -------         MODULE        NIXIETUBE
  C:0000H         SYMBOL        _ICE_DUMMY_
  D:0080H         PUBLIC        P0
  D:0008H         PUBLIC        nixieTable
  B:00A0H.2       PUBLIC        P2_2
  B:00A0H.3       PUBLIC        P2_3
  B:00A0H.4       PUBLIC        P2_4
  C:008FH         PUBLIC        _nixieTube
  -------         PROC          _NIXIETUBE
  D:0007H         SYMBOL        location
  D:0005H         SYMBOL        number
  C:008FH         LINE#         6
  C:008FH         LINE#         7
  C:00BCH         LINE#         8
  C:00BCH         LINE#         9
  C:00BEH         LINE#         10
  C:00C0H         LINE#         11
  C:00C0H         LINE#         12
BL51 BANKED LINKER/LOCATER V6.22                                                      12/17/2022  23:49:16  PAGE 3


  C:00C2H         LINE#         13
  C:00C4H         LINE#         14
  C:00C4H         LINE#         15
  C:00C6H         LINE#         16
  C:00C8H         LINE#         17
  C:00C8H         LINE#         18
  C:00CAH         LINE#         19
  C:00CCH         LINE#         20
  C:00CCH         LINE#         21
  C:00D2H         LINE#         22
  C:00D4H         LINE#         23
  C:00D4H         LINE#         24
  C:00DAH         LINE#         25
  C:00DCH         LINE#         26
  C:00DCH         LINE#         27
  C:00E2H         LINE#         28
  C:00E4H         LINE#         30
  C:00E4H         LINE#         31
  C:00EAH         LINE#         32
  C:00EAH         LINE#         33
  C:00EAH         LINE#         34
  C:00EAH         LINE#         35
  C:00EAH         LINE#         36
  C:00F1H         LINE#         37
  C:00F8H         LINE#         38
  C:00FBH         LINE#         39
  -------         ENDPROC       _NIXIETUBE
  -------         ENDMOD        NIXIETUBE

Program Size: data=19.0 xdata=0 code=330
LINK/LOCATE RUN COMPLETE.  0 WARNING(S),  0 ERROR(S)
