BL51 BANKED LINKER/LOCATER V6.22.4.0                                                    09/01/2023  16:23:21  PAGE 1


BL51 BANKED LINKER/LOCATER V6.22.4.0, INVOKED BY:
D:\KEIL_V5\C51\BIN\BL51.EXE .\Objects\STARTUP.obj, .\Objects\demo_p97.obj TO .\Objects\Project PRINT (.\Listings\Project
>> .m51) RAMSIZE (256)


INPUT MODULES INCLUDED:
  .\Objects\STARTUP.obj (?C_STARTUP)
  .\Objects\demo_p97.obj (DEMO_P97)


LINK MAP OF MODULE:  .\Objects\Project (?C_STARTUP)


            TYPE    BASE      LENGTH    RELOCATION   SEGMENT NAME
            -----------------------------------------------------

            * * * * * * *   D A T A   M E M O R Y   * * * * * * *
            REG     0000H     0008H     ABSOLUTE     "REG BANK 0"
            IDATA   0008H     0001H     UNIT         ?STACK

            * * * * * * *   C O D E   M E M O R Y   * * * * * * *
            CODE    0000H     0003H     ABSOLUTE     
* OVERLAP * CODE    0000H     0027H     ABSOLUTE     
            CODE    0027H     000CH     UNIT         ?C_C51STARTUP



UNRESOLVED EXTERNAL SYMBOLS:
   ?C_START



SYMBOL TABLE OF MODULE:  .\Objects\Project (?C_STARTUP)

  VALUE           TYPE          NAME
  ----------------------------------

  -------         MODULE        ?C_STARTUP
  C:0027H         SEGMENT       ?C_C51STARTUP
  I:0008H         SEGMENT       ?STACK
  C:0000H         PUBLIC        ?C_STARTUP
  D:00E0H         SYMBOL        ACC
  D:00F0H         SYMBOL        B
  D:0083H         SYMBOL        DPH
  D:0082H         SYMBOL        DPL
  N:0000H         SYMBOL        IBPSTACK
  N:0100H         SYMBOL        IBPSTACKTOP
  N:0080H         SYMBOL        IDATALEN
  C:002AH         SYMBOL        IDATALOOP
  N:0000H         SYMBOL        PBPSTACK
  N:0100H         SYMBOL        PBPSTACKTOP
  N:0000H         SYMBOL        PDATALEN
  N:0000H         SYMBOL        PDATASTART
  N:0000H         SYMBOL        PPAGE
  N:0000H         SYMBOL        PPAGEENABLE
  D:00A0H         SYMBOL        PPAGE_SFR
  D:0081H         SYMBOL        SP
  C:0027H         SYMBOL        STARTUP1
BL51 BANKED LINKER/LOCATER V6.22.4.0                                                  09/01/2023  16:23:21  PAGE 2


  N:0000H         SYMBOL        XBPSTACK
  N:0000H         SYMBOL        XBPSTACKTOP
  N:0000H         SYMBOL        XDATALEN
  N:0000H         SYMBOL        XDATASTART
  C:0000H         LINE#         126
  C:0027H         LINE#         133
  C:0029H         LINE#         134
  C:002AH         LINE#         135
  C:002BH         LINE#         136
  C:002DH         LINE#         185
  C:0030H         LINE#         196
  -------         ENDMOD        ?C_STARTUP

  -------         MODULE        DEMO_P97
  C:0010H         SYMBOL        LOOP1
  C:0013H         SYMBOL        LOOP2
  C:001BH         SYMBOL        LOOP3
  C:0020H         SYMBOL        LOOP4
  C:0000H         SYMBOL        MAIN
  D:00A0H         SYMBOL        P2
  D:00B0H         SYMBOL        P3
  B:0088H.5       SYMBOL        TF0
  B:0088H.7       SYMBOL        TF1
  D:008CH         SYMBOL        TH0
  D:008DH         SYMBOL        TH1
  D:008AH         SYMBOL        TL0
  D:008BH         SYMBOL        TL1
  D:0089H         SYMBOL        TMOD
  B:0088H.4       SYMBOL        TR0
  B:0088H.6       SYMBOL        TR1
  C:0000H         LINE#         22
  C:0002H         LINE#         23
  C:0005H         LINE#         24
  C:0008H         LINE#         25
  C:000BH         LINE#         26
  C:000EH         LINE#         27
  C:0010H         LINE#         30
  C:0011H         LINE#         31
  C:0013H         LINE#         33
  C:0016H         LINE#         34
  C:0019H         LINE#         35
  C:001BH         LINE#         38
  C:001EH         LINE#         39
  C:0020H         LINE#         41
  C:0022H         LINE#         42
  C:0025H         LINE#         43
  -------         ENDMOD        DEMO_P97

*** WARNING L5: CODE SPACE MEMORY OVERLAP
    FROM:    0000H
    TO:      0002H

*** WARNING L1: UNRESOLVED EXTERNAL SYMBOL
    SYMBOL:  ?C_START
    MODULE:  .\Objects\STARTUP.obj (?C_STARTUP)

*** WARNING L2: REFERENCE MADE TO UNRESOLVED EXTERNAL
BL51 BANKED LINKER/LOCATER V6.22.4.0                                                  09/01/2023  16:23:21  PAGE 3


    SYMBOL:  ?C_START
    MODULE:  .\Objects\STARTUP.obj (?C_STARTUP)
    ADDRESS: 0031H

Program Size: data=9.0 xdata=0 code=54
LINK/LOCATE RUN COMPLETE.  3 WARNING(S),  0 ERROR(S)
