BL51 BANKED LINKER/LOCATER V6.22.4.0                                                    11/24/2023  10:51:32  PAGE 1


BL51 BANKED LINKER/LOCATER V6.22.4.0, INVOKED BY:
D:\KEIL_V5\C51\BIN\BL51.EXE .\Objects\exp4_2.obj TO .\Objects\Project PRINT (.\Listings\Project.m51) RAMSIZE (256)


INPUT MODULES INCLUDED:
  .\Objects\exp4_2.obj (EXP4_2)


LINK MAP OF MODULE:  .\Objects\Project (EXP4_2)


            TYPE    BASE      LENGTH    RELOCATION   SEGMENT NAME
            -----------------------------------------------------

            * * * * * * *   D A T A   M E M O R Y   * * * * * * *
            REG     0000H     0008H     ABSOLUTE     "REG BANK 0"

            * * * * * * *   C O D E   M E M O R Y   * * * * * * *
            CODE    0000H     0170H     ABSOLUTE     



SYMBOL TABLE OF MODULE:  .\Objects\Project (EXP4_2)

  VALUE           TYPE          NAME
  ----------------------------------

  -------         MODULE        EXP4_2
  D:00E0H         SYMBOL        ACC
  B:00A8H.7       SYMBOL        EA
  B:00A8H.0       SYMBOL        EX0
  B:00A8H.2       SYMBOL        EX1
  C:013AH         SYMBOL        HC595OFF
  C:012AH         SYMBOL        HC595SENDBYTE
  C:012EH         SYMBOL        HC595SENDLOOP
  B:00C0H.3       SYMBOL        HC595_RCK
  B:00C0H.2       SYMBOL        HC595_SCK
  B:00C0H.4       SYMBOL        HC595_SI
  B:0088H.1       SYMBOL        IE0
  B:0088H.3       SYMBOL        IE1
  C:014EH         SYMBOL        INT0ISR
  C:0153H         SYMBOL        INT0SUB
  C:015FH         SYMBOL        INT1ISR
  C:0164H         SYMBOL        INT1SUB
  B:0088H.0       SYMBOL        IT0
  B:0088H.2       SYMBOL        IT1
  D:0042H         SYMBOL        LED_STATE
  C:0100H         SYMBOL        MAIN
  C:0125H         SYMBOL        MAINLOOP
  D:00B0H         SYMBOL        P3
  D:00C0H         SYMBOL        P4
  D:00B4H         SYMBOL        P4M0
  D:00B3H         SYMBOL        P4M1
  D:00E8H         SYMBOL        P6
  D:00CCH         SYMBOL        P6M0
  D:00CBH         SYMBOL        P6M1
  D:0081H         SYMBOL        SP
  C:0000H         LINE#         22
BL51 BANKED LINKER/LOCATER V6.22.4.0                                                  11/24/2023  10:51:32  PAGE 2


  C:0003H         LINE#         24
  C:0013H         LINE#         26
  C:0100H         LINE#         30
  C:0103H         LINE#         31
  C:0106H         LINE#         33
  C:0109H         LINE#         34
  C:010CH         LINE#         35
  C:010FH         LINE#         36
  C:0112H         LINE#         37
  C:0114H         LINE#         38
  C:0116H         LINE#         39
  C:0118H         LINE#         40
  C:011AH         LINE#         41
  C:011CH         LINE#         43
  C:011EH         LINE#         44
  C:0120H         LINE#         45
  C:0122H         LINE#         46
  C:0125H         LINE#         48
  C:0128H         LINE#         49
  C:012AH         LINE#         55
  C:012CH         LINE#         56
  C:012EH         LINE#         58
  C:012FH         LINE#         59
  C:0131H         LINE#         60
  C:0133H         LINE#         61
  C:0135H         LINE#         62
  C:0137H         LINE#         63
  C:0139H         LINE#         64
  C:013AH         LINE#         70
  C:013CH         LINE#         72
  C:013DH         LINE#         73
  C:0140H         LINE#         75
  C:0141H         LINE#         76
  C:0144H         LINE#         77
  C:0146H         LINE#         78
  C:0147H         LINE#         79
  C:0149H         LINE#         80
  C:014BH         LINE#         81
  C:014DH         LINE#         82
  C:014EH         LINE#         88
  C:0150H         LINE#         89
  C:0151H         LINE#         90
  C:0153H         LINE#         92
  C:0156H         LINE#         93
  C:0158H         LINE#         95
  C:015BH         LINE#         96
  C:015EH         LINE#         97
  C:015FH         LINE#         103
  C:0161H         LINE#         104
  C:0162H         LINE#         105
  C:0164H         LINE#         107
  C:0167H         LINE#         108
  C:0169H         LINE#         109
  C:016CH         LINE#         110
  C:016FH         LINE#         111
  -------         ENDMOD        EXP4_2

BL51 BANKED LINKER/LOCATER V6.22.4.0                                                  11/24/2023  10:51:32  PAGE 3


Program Size: data=8.0 xdata=0 code=368
LINK/LOCATE RUN COMPLETE.  0 WARNING(S),  0 ERROR(S)
